{
  "_format": "hh-sol-artifact-1",
  "contractName": "HoneyPie",
  "sourceName": "contracts/Honeypie.sol",
  "abi": [
    {
      "inputs": [],
      "stateMutability": "nonpayable",
      "type": "constructor"
    },
    {
      "inputs": [
        {
          "internalType": "string",
          "name": "name",
          "type": "string"
        },
        {
          "internalType": "string",
          "name": "message",
          "type": "string"
        }
      ],
      "name": "buy",
      "outputs": [],
      "stateMutability": "payable",
      "type": "function"
    },
    {
      "inputs": [],
      "name": "getMemos",
      "outputs": [
        {
          "components": [
            {
              "internalType": "string",
              "name": "name",
              "type": "string"
            },
            {
              "internalType": "string",
              "name": "message",
              "type": "string"
            },
            {
              "internalType": "uint256",
              "name": "timestamp",
              "type": "uint256"
            },
            {
              "internalType": "address",
              "name": "from",
              "type": "address"
            },
            {
              "internalType": "uint256",
              "name": "amount",
              "type": "uint256"
            }
          ],
          "internalType": "struct HoneyPie.Memo[]",
          "name": "",
          "type": "tuple[]"
        }
      ],
      "stateMutability": "view",
      "type": "function"
    }
  ],
  "bytecode": "0x608060405234801561001057600080fd5b5033600160006101000a81548173ffffffffffffffffffffffffffffffffffffffff021916908373ffffffffffffffffffffffffffffffffffffffff160217905550610ba0806100616000396000f3fe6080604052600436106100295760003560e01c8063865c51721461002e578063c63e529b14610059575b600080fd5b34801561003a57600080fd5b50610043610075565b604051610050919061062c565b60405180910390f35b610073600480360381019061006e9190610797565b610262565b005b60606000805480602002602001604051908101604052809291908181526020016000905b8282101561025957838290600052602060002090600502016040518060a00160405290816000820180546100cc9061083e565b80601f01602080910402602001604051908101604052809291908181526020018280546100f89061083e565b80156101455780601f1061011a57610100808354040283529160200191610145565b820191906000526020600020905b81548152906001019060200180831161012857829003601f168201915b5050505050815260200160018201805461015e9061083e565b80601f016020809104026020016040519081016040528092919081815260200182805461018a9061083e565b80156101d75780601f106101ac576101008083540402835291602001916101d7565b820191906000526020600020905b8154815290600101906020018083116101ba57829003601f168201915b50505050508152602001600282015481526020016003820160009054906101000a900473ffffffffffffffffffffffffffffffffffffffff1673ffffffffffffffffffffffffffffffffffffffff1673ffffffffffffffffffffffffffffffffffffffff16815260200160048201548152505081526020019060010190610099565b50505050905090565b600034116102a5576040517f08c379a000000000000000000000000000000000000000000000000000000000815260040161029c906108cc565b60405180910390fd5b600160009054906101000a900473ffffffffffffffffffffffffffffffffffffffff1673ffffffffffffffffffffffffffffffffffffffff166108fc349081150290604051600060405180830381858888f1935050505015801561030d573d6000803e3d6000fd5b5060006040518060a001604052808481526020018381526020014281526020013373ffffffffffffffffffffffffffffffffffffffff168152602001348152509080600181540180825580915050600190039060005260206000209060050201600090919091909150600082015181600001908161038b9190610a98565b5060208201518160010190816103a19190610a98565b506040820151816002015560608201518160030160006101000a81548173ffffffffffffffffffffffffffffffffffffffff021916908373ffffffffffffffffffffffffffffffffffffffff1602179055506080820151816004015550505050565b600081519050919050565b600082825260208201905092915050565b6000819050602082019050919050565b600081519050919050565b600082825260208201905092915050565b60005b8381101561046957808201518184015260208101905061044e565b60008484015250505050565b6000601f19601f8301169050919050565b60006104918261042f565b61049b818561043a565b93506104ab81856020860161044b565b6104b481610475565b840191505092915050565b6000819050919050565b6104d2816104bf565b82525050565b600073ffffffffffffffffffffffffffffffffffffffff82169050919050565b6000610503826104d8565b9050919050565b610513816104f8565b82525050565b600060a08301600083015184820360008601526105368282610486565b915050602083015184820360208601526105508282610486565b915050604083015161056560408601826104c9565b506060830151610578606086018261050a565b50608083015161058b60808601826104c9565b508091505092915050565b60006105a28383610519565b905092915050565b6000602082019050919050565b60006105c282610403565b6105cc818561040e565b9350836020820285016105de8561041f565b8060005b8581101561061a57848403895281516105fb8582610596565b9450610606836105aa565b925060208a019950506001810190506105e2565b50829750879550505050505092915050565b6000602082019050818103600083015261064681846105b7565b905092915050565b6000604051905090565b600080fd5b600080fd5b600080fd5b600080fd5b7f4e487b7100000000000000000000000000000000000000000000000000000000600052604160045260246000fd5b6106a482610475565b810181811067ffffffffffffffff821117156106c3576106c261066c565b5b80604052505050565b60006106d661064e565b90506106e2828261069b565b919050565b600067ffffffffffffffff8211156107025761070161066c565b5b61070b82610475565b9050602081019050919050565b82818337600083830152505050565b600061073a610735846106e7565b6106cc565b90508281526020810184848401111561075657610755610667565b5b610761848285610718565b509392505050565b600082601f83011261077e5761077d610662565b5b813561078e848260208601610727565b91505092915050565b600080604083850312156107ae576107ad610658565b5b600083013567ffffffffffffffff8111156107cc576107cb61065d565b5b6107d885828601610769565b925050602083013567ffffffffffffffff8111156107f9576107f861065d565b5b61080585828601610769565b9150509250929050565b7f4e487b7100000000000000000000000000000000000000000000000000000000600052602260045260246000fd5b6000600282049050600182168061085657607f821691505b6020821081036108695761086861080f565b5b50919050565b600082825260208201905092915050565b7f506c65617365207061792067726561746572207468616e203020657468657200600082015250565b60006108b6601f8361086f565b91506108c182610880565b602082019050919050565b600060208201905081810360008301526108e5816108a9565b9050919050565b60008190508160005260206000209050919050565b60006020601f8301049050919050565b600082821b905092915050565b60006008830261094e7fffffffffffffffffffffffffffffffffffffffffffffffffffffffffffffffff82610911565b6109588683610911565b95508019841693508086168417925050509392505050565b6000819050919050565b600061099561099061098b846104bf565b610970565b6104bf565b9050919050565b6000819050919050565b6109af8361097a565b6109c36109bb8261099c565b84845461091e565b825550505050565b600090565b6109d86109cb565b6109e38184846109a6565b505050565b5b81811015610a07576109fc6000826109d0565b6001810190506109e9565b5050565b601f821115610a4c57610a1d816108ec565b610a2684610901565b81016020851015610a35578190505b610a49610a4185610901565b8301826109e8565b50505b505050565b600082821c905092915050565b6000610a6f60001984600802610a51565b1980831691505092915050565b6000610a888383610a5e565b9150826002028217905092915050565b610aa18261042f565b67ffffffffffffffff811115610aba57610ab961066c565b5b610ac4825461083e565b610acf828285610a0b565b600060209050601f831160018114610b025760008415610af0578287015190505b610afa8582610a7c565b865550610b62565b601f198416610b10866108ec565b60005b82811015610b3857848901518255600182019150602085019450602081019050610b13565b86831015610b555784890151610b51601f891682610a5e565b8355505b6001600288020188555050505b50505050505056fea264697066735822122084c734e6a3b72a095b3187da556490ee40abec6105f10051a6647d9da2ea584a64736f6c63430008110033",
  "linkReferences": {},
  "deployedLinkReferences": {}
}